:100000000C94D4000C94FC000C94FC000C94FC00A8
:100010000C94FC000C94FC000C94FC000C94640FF9
:100020000C94FC000C94FC000C94FC000C94FC0060
:100030000C94FC000C94FC000C94FC000C94FC0050
:100040000C9490080C94FC000C9428110C94021150
:100050000C94FC000C94FC000C94FC000C94FC0030
:100060000C94FC000C94FC0083078D0793079C07FD
:10007000B8078D07880762086A086D087108770855
:100080007E088208740800000000240027002A006F
:10009000FFFFFF05FFFFFF01FFFF0AFFFFFFFFFF5D
:1000A00002FFFFFF00FFFFFF00FFFFFFFF03FFFF57
:1000B00004FFFFFF00FFFFFFFFFF03FF04FFFFFF41
:1000C00001FFFFFFFFFFFFFFFFFFFF00FFFFFFFF3D
:1000D000FFFFFF06FFFFFFFF02FFFFFF07FFFFFF1E
:1000E00005FFFFFF03FFFFFFFF07FFFF0809FFFFFB
:1000F00004FF05FFFFFFFFFFFFFFFF0504FF05FFF4
:10010000FFFFFFFF05FFFFFF06FFFFFFFFFFFFFFF2
:10011000FFFFFF0000000000250028002B00040462
:10012000040404040404020202020202030303039F
:10013000030301020408102040800102040810207B
:100140000102040810200000000800020100000362
:1001500004070000000000000000020000FF000093
:100160002AD5000055AB00007FAB0000ABAB000010
:10017000D5560000FF00002AD5000055AB0000AAAC
:10018000560000FF000000D5002A00AB005500819A
:10019000007F005500AB002B00D5000000000023BD
:1001A000002600290000831111241FBECFEFD8E0E4
:1001B000DEBFCDBF24E0A8EBB1E001C01D92A337A4
:1001C000B207E1F711E0A0E0B1E0E2EAFAE202C032
:1001D00005900D92A83BB107D9F710E0C4EDD0E02F
:1001E00004C02197FE010E94C313C33DD107C9F784
:1001F0000E940A120C944F150C9400008091540434
:100200009091550401969093550480935404089559
:1002100080910301909104010196909304018093D1
:10022000030164E070E00E94AF13FC01EE0FFF1FBA
:10023000E857FE4F808180934C03089580E090E062
:100240000895FC01858596850895CF93DF9300D0AE
:1002500000D000D0CDB7DEB7AB011C821D821E825C
:10026000DC01ED91FC910190F081E02D19821A8260
:100270001B829E012F5F3F4FBE016C5F7F4F099530
:1002800026960FB6F894DEBF0FBECDBFDF91CF919B
:100290000895FC01DB013C912081230F08F42FEF2E
:1002A000208311963C9111972181230F08F42FEFA1
:1002B000218312963C912281230F08F42FEF228391
:1002C0000895BC019C013F73369527953695279577
:1002D0003695279576FF06C08FEF97E0AC01421B5D
:1002E000530B9A01E32FEE0FEE0FF0E0E75FFE4FA6
:1002F0004081518182812695FA01829FE00DF11D96
:100300001124CF0177FF03C091958195910908953C
:10031000409100015091010125E038E0429FC00169
:10032000439F900D529F900D1124875E994C90939E
:10033000010180930001890F08959C01AB01869F04
:10034000C001379FD001BC01CD01E0E0349F700DAA
:10035000811D9E1F259F700D811D9E1F11240895D4
:10036000259A249A0F960C94700A0F931F93CF939B
:10037000DF93CDB7DEB762970FB6F894DEBF0FBE3E
:10038000CDBF8C01F901DC011C968C917A836983C5
:100390005C834B835E834D8390819D8791819E8793
:1003A00092819F87813029F4CE0101960E94230A11
:1003B00006C01C861B861A86198618861F82188A14
:1003C0001A8A198AD801ED91FC910484F585E02DF3
:1003D000BE016F5F7F4FC801099562960FB6F89412
:1003E000DEBF0FBECDBFDF91CF911F910F9108955A
:1003F0000F931F93CF93DF93CDB7DEB762970FB6FE
:10040000F894DEBF0FBECDBF8C01F901DC011C9654
:100410008C917A8369835C834B835E834D83908167
:100420009D8791819E8792819F87813029F4CE019B
:1004300001960E94230A06C01C861B861A8619860E
:1004400018861F8283E0888B1A8A198AD801ED9159
:10045000FC910484F585E02DBE016F5F7F4FC801DC
:10046000099562960FB6F894DEBF0FBECDBFDF913F
:10047000CF911F910F910895CF92DF92EF92FF924B
:100480001F93CF93DF93EC010E941D08C880D98091
:10049000EA80FB80DC01CB018C199D09AE09BF0904
:1004A00011E0CC80DD80EE80FF808C159D05AE05CF
:1004B000BF0510F410E006C00E941D086883798310
:1004C0008A839B83812FDF91CF911F91FF90EF90C3
:1004D000DF90CF9008959F92AF92BF92CF92DF921C
:1004E000EF92FF920F931F93CF93DF93CDB7DEB7B9
:1004F00028970FB6F894DEBF0FBECDBF80910B02D8
:10050000811119C00E941D086093030270930402B8
:1005100080930502909306028DE290E0A0E0B0E0A7
:100520008093070290930802A0930902B0930A02F5
:1005300081E080930B0283E092E00E943C028823DA
:1005400009F464C0E0900102F090020288E0E80E35
:10055000F11CF0920202E0920102C0900002C394EA
:10056000C09200020FE112E040E09E2C9094BB2468
:10057000BA9480E1A82E942F9E0D97FF02C0992D6A
:10058000941B392F330F232F239F020E20E0211DB0
:10059000522F539F050E50E0511D83E0289F90017C
:1005A000112482E0589F20193109112430FD02C026
:1005B000213C10F020E801C020E0D090FF01D9825A
:1005C000BA82AB82B801CE0101962F8348870E9480
:1005D000DA08CC82BD822F812E83BE016F5F7F4FF0
:1005E000CE0104960E94DA08BE016F5F7F4FC801FA
:1005F0000E9449014885405E0D5F1F4F82E00C3A22
:10060000180709F0B8CFD394D092FF0128960FB6FF
:10061000F894DEBF0FBECDBFDF91CF911F910F9138
:10062000FF90EF90DF90CF90BF90AF909F90089594
:10063000FF920F931F93CF93DF9300D000D000D091
:10064000CDB7DEB71092FE018DEF0E94A40B09E03A
:1006500010E0FF24FA948091FE018983FA82FB82E4
:10066000BE016C5F7F4FCE0101960E94DA080E94A6
:100670001D089B01AC01A8E1B1E00E9413159B018C
:10068000AC01B02FA0E00E9413150E94610160E34D
:1006900070E090580E949D019C01220F331F820F31
:1006A000931FBE016C5F7F4F815E9D4F0E94490189
:1006B0008091FE01815C8093FE010F5F1F4F0D3022
:1006C000110549F626960FB6F894DEBF0FBECDBFD2
:1006D000DF91CF911F910F91FF900895EF92FF92BC
:1006E0000F931F93CF93DF9300D01F92CDB7DEB748
:1006F0008DEF0E94A40B59E5E52E53E0F52E00E0A6
:1007000010E0BE016F5F7F4FC7010E94DA080E94B0
:100710001D089B01AC01A8E1B1E00E9413159B01EB
:10072000AC01C8010896B82FA0E00E9413150E94E2
:10073000610160E370E090580E949D019C01220FCE
:10074000331F820F931FBE016F5F7F4F815E9D4FEE
:100750000E9449010F5F1F4F83E0E80EF11C033038
:10076000110579F60F900F900F90DF91CF911F91A7
:100770000F91FF90EF9008958091F601811119C0BB
:100780000E941D086093EE017093EF018093F001C9
:100790009093F1018AE090E0A0E0B0E08093F20154
:1007A0009093F301A093F401B093F50181E080935D
:1007B000F6018EEE91E00E943C02882361F1809167
:1007C000ED01382F87FD309521E0230F329F030E76
:1007D00030E0311D1124330F87FD30953093EC014B
:1007E0008F5F8093ED0120E3239F020E20E0211D07
:1007F00011242093EB01E22FF0E0CF01880F991F25
:10080000E80FF91FE15EFD4F8FEF808311821282A6
:100810008FEE0E94A40B80914C030C94DB0BCF93C2
:10082000DF9344E26CE08EE190E00E94520BD82FFF
:100830004FE260E08EE190E00E94520BC82F40E250
:1008400060E18EE190E00E94520B90E0FC01EE0F1F
:10085000FF1F8E0F9F1FFC01E15EFD4F80E880832C
:10086000118282838D2F90E0FC01EE0FFF1FE80FB5
:10087000F91FE15EFD4F108211822FEF22838C2F32
:1008800090E0FC01EE0FFF1FE80FF91FE15EFD4F46
:100890001082218322838FEEDF91CF910C94A40BE1
:1008A000CF93DF936091C7017091C8018091C90116
:1008B0009091CA010E944A14CB0165E070E00E9449
:1008C000AF132091C601BC01660F771F680F791F17
:1008D00040E050E0322F3170C32F30E0D32FDA01E7
:1008E000A60FB71FA15EBD4FFE01EE0FFF1FEC0F5D
:1008F000FD1FEE53FC4F30813C93318111963C93A8
:100900001197328112963C932F5F0596415F5F4F9E
:1009100080339105FCF22093C60144E660E088E74D
:1009200090E00E94520B64E10E94A313682F70E0D4
:1009300080E090E00E9482146093C7017093C80128
:100940008093C9019093CA018FEEDF91CF910C94EF
:10095000A40B6091C7017091C8018091C901909169
:10096000CA010E944A14CB0165E070E00E94AF13F7
:10097000BC01660F771F680F791F20E030E045EF5C
:10098000F901E60FF71FE15EFD4F4083418342838B
:100990000596215F3F4F8033910594F344E660E074
:1009A00088E790E00E94520B64E10E94A313682F35
:1009B00070E080E090E00E9482146093C701709321
:1009C000C8018093C9019093CA018FEE0C94A40BC7
:1009D0006F927F928F929F92AF92BF92CF92DF924F
:1009E000EF92FF920F931F93CF93DF93CDB7DEB7B4
:1009F000E6970FB6F894DEBF0FBECDBF4FEF60E0B5
:100A000085E090E00E94520B082F44E16AE08FE0FD
:100A100090E00E94520B60E070E0202F22952F7032
:100A2000502F5F70E22FEE0FE20FF0E0EE56FC4F1A
:100A3000408131819281552309F42CC02F3011F06F
:100A4000339602C0E2E9F3E05295507F152F1095DE
:100A50002081419F040E40E0411D259F020E20E0B1
:100A6000211D420F2181319F030E30E0311D259F52
:100A7000020E20E0211D320FE281292F219F020E5C
:100A800020E0211D1E2F159F010E10E0111D922F39
:100A9000910F1124FB01E15EFD4F4083318392836E
:100AA000080F6D5F7F4F6039710509F0B6CF8091F7
:100AB000E301811119C00E941D086093DB0170934E
:100AC000DC018093DD019093DE0184E690E0A0E0FC
:100AD000B0E08093DF019093E001A093E101B09337
:100AE000E20181E08093E3018BED91E00E943C0202
:100AF00081111EC08091D30181113CC00E941D084C
:100B00006093CB017093CC018093CD019093CE0183
:100B100088E893E1A0E0B0E08093CF019093D0010A
:100B2000A093D101B093D20181E08093D30122C080
:100B3000A2E6B3E0E2E9F3E080E040E34E0F90810B
:100B40002D91921799F0921718F49F5F90838F5F01
:100B50009081291748F43FEF390F8F5F231710F06A
:100B6000308302C092509083883120F631964E1324
:100B7000E6CFC0CF8BEC91E00E943C02882309F4C1
:100B800066C00E948801682E0E948801982E0E94EB
:100B9000880120E4829FC001112480EC882E890EF8
:100BA0000E948801782E0E9488017CAA8DAAFF24C9
:100BB000FA94FEAA89ABFAAA90E2E92EEBAA5E01AA
:100BC00081E3A80EB11C8E010C5C1F4F25E030E0C4
:100BD000A50160E070E0CE0101966C010E943E0E1E
:100BE0009CAAFDAAEEAA79AA8AAAFBAA2AE030E06A
:100BF000A50165E070E0C6010E943E0E6CAAFDAA48
:100C0000FEAA99AAFAAAEBAA2FE030E0A5016AE0B1
:100C100070E0C6010E943E0E92E6C91693E0D90626
:100C200029F020F0C6010E94C80B11C080E390E0BB
:100C300022E933E0F501D90180FF05C002C002902E
:100C40000E9202900E928250D0F79040C0F7E69636
:100C50000FB6F894DEBF0FBECDBFDF91CF911F91CD
:100C60000F91FF90EF90DF90CF90BF90AF909F904B
:100C70008F907F906F900895CF934FEF60E085E065
:100C800090E00E94520BC82F44E164E08FE090E0B6
:100C90000E94520B482F6C2F80E390E0CF910C9470
:100CA0001A0BCF92DF92EF92FF92C090C201D090C8
:100CB000C301E090C401F090C501C701B6010E94D4
:100CC000511442E080E390E00E941A0B2DEC3CECC2
:100CD0004CE45DE3C701B6010E94DE136093C201DC
:100CE0007093C3018093C4019093C501FF90EF906E
:100CF000DF90CF900895809103019091040164E00A
:100D000070E00E94AF13FC01EE0FFF1FE857FE4F8B
:100D1000408160E088E790E00E94520B80934C0392
:100D20000C945106CF92DF92EF92FF92CF93DF9314
:100D3000C0911D02D0911E02209789F08A819B816B
:100D4000009749F06D857E859B01220F331F620F4E
:100D5000731F0E94980B0C80DD81C02DEDCFC090D9
:100D6000C201D090C301E090C401F090C50140E3FE
:100D700060E088E790E00E94520BC82FC701B601DF
:100D80000E94511442E08C2F90E00E941A0B2DEC2F
:100D90003CEC4CE45DE3C701B6010E94DE136093B6
:100DA000C2017093C3018093C4019093C501DF9188
:100DB000CF91FF90EF90DF90CF900895DB010296E6
:100DC00020E030E0FD01E20FF31F45915591659160
:100DD0007491FC013297608331965083FC0140830B
:100DE0002C5F3F4F03962034310561F70895FC01D5
:100DF0008585082E000C990B089587FF02C02D9A57
:100E000001C02D982C9A2C9886FF02C02D9A01C003
:100E10002D982C9A2C9885FF02C02D9A01C02D98F0
:100E20002C9A2C9884FF02C02D9A01C02D982C9AE0
:100E30002C9883FF02C02D9A01C02D982C9A2C98D3
:100E400082FF02C02D9A01C02D982C9A2C9881FF08
:100E500002C02D9A01C02D982C9A2C9880FF02C0B8
:100E60002D9A01C02D982C9A2C980895EF92FF92FC
:100E70000F931F93CF93DF93EC018B0188E0E82E53
:100E8000F12C8E818E7F8E83CE010E94F70C3D85E2
:100E900029893203F00111243396E00FF11F8A856E
:100EA0009B85E80FF91FE4910E2E000CFF0B81E0EB
:100EB000E81AF10839F0EF3F8FEFF80711F38F814F
:100EC0008F3FF9F6F7FD0DC00F838E818E7F8E83E5
:100ED000CE010E94F70C8E818E7F8E83CE010E9400
:100EE000F70CCE01DF91CF911F910F91FF90EF9002
:100EF0000895DC016730710508F050C0FB01EC5C1F
:100F0000FF4F0C94C313DA966D917C91DB9740C030
:100F100040E050E061E070E03DC040E050E060E063
:100F200070E04F9639C0D8968D919C91D997D796FD
:100F30009C938E93D6970895D6968D919C91D79732
:100F400001978E3F2FEF920720F4D7969C938E93B4
:100F5000D6975A968C915A9787708130F9F4D69625
:100F60006D917C91D797D8968D919C91D9970EC011
:100F70005A968C915A978770813081F4D8966D91EA
:100F80007C91D997D6968D919C91D797681B790BB8
:100F900040E050E0CD014A960C94390F089583301B
:100FA00081F028F4813099F08230A1F008958730E3
:100FB000A9F08830B9F08430D1F4809180008F7D21
:100FC00003C0809180008F7780938000089584B55E
:100FD0008F7702C084B58F7D84BD08958091B00065
:100FE0008F7703C08091B0008F7D8093B00008950B
:100FF0003FB7F8948091190290911A02A0911B02B8
:10100000B0911C0226B5A89B05C02F3F19F0019690
:10101000A11DB11D3FBFBA2FA92F982F8827820F7E
:10102000911DA11DB11DBC01CD0142E0660F771FCE
:10103000881F991F4A95D1F708952FB7F8946091AA
:1010400015027091160280911702909118022FBF1D
:1010500008950F931F93CF93DF93FC0100811181BB
:10106000228133810F3F1F4F2F4F3F4FE1F08B0104
:10107000EC010E941D08F801028113812481358151
:10108000AB01BC01401B510B620B730B81E090E084
:10109000088119812A813B81401751076207730734
:1010A00020F480E002C080E090E0DF91CF911F91BA
:1010B0000F9108956830710580F5FB01E55CFF4FE5
:1010C0000C94C31331E020E0FC0186A997A9892B79
:1010D00009F51FC0BC01869602C0BC018A960C941B
:1010E0002908BC018E96FBCFBC01C296F8CFFC014B
:1010F00084A10E945A1131E020E009C0FC0184A1C2
:101100000C945A1131E020E0FC0186A997A9892BA3
:1011100009F030E0832F922F089580E090E0089549
:101120001F920F920FB60F9211242F933F938F931C
:101130009F93AF93BF938091150290911602A09157
:101140001702B09118023091140223E0230F2D37BB
:1011500020F40196A11DB11D05C026E8230F0296BB
:10116000A11DB11D209314028093150290931602C5
:10117000A0931702B09318028091190290911A025D
:10118000A0911B02B0911C020196A11DB11D80937C
:10119000190290931A02A0931B02B0931C02BF91F4
:1011A000AF919F918F913F912F910F900FBE0F9014
:1011B0001F901895DC01FB014C9111965C911197E1
:1011C00012967C91342F3F71330F330F832F880F8A
:1011D00035E5282F239F020E20E0211D1124642FC6
:1011E0006074942F907247FD21C061110BC0911162
:1011F00004C0822F8095422F11C045E5420F30E098
:101200002BEA33C091110DC0382F4AEA349F030EE8
:1012100030E0311D11248BEA831B420F282F30E070
:1012200024C080E0422F4095322F0EC0611111C0C2
:1012300091110CC0382F2AEA329F030E30E0311D85
:1012400011244BEA431B3B5A20E00FC0322F30954C
:101250000BC0911104C085E5820F3BEA03C08AEA06
:10126000820F90E0321B282F40E05F3F11F15523A1
:10127000E9F0222321F0259F020E20E0211D4423C6
:1012800021F0459F040E40E0411D332321F0359F9E
:10129000030E30E0311D11245095559F050E50E08E
:1012A000511D1124250F450F350F03C03FEF4FEFA0
:1012B0002FEF7F3F09F420C050E0772321F0779F84
:1012C000512D09F05F5F5523A1F0222321F0259FC6
:1012D000020E20E0211D442321F0459F040E40E032
:1012E000411D332321F0359F030E30E0311D1124C1
:1012F00003C030E040E020E0208341833283089542
:101300006F3F8FEF7807B1F061157105B1F0FA0109
:1013100080E090E09F01241B350BA191A111FACF31
:10132000019686179707B1F72F5F3F4FCA01820FCB
:10133000931F089582E991E00895CA0108950F93DB
:101340001F93CF93DF93DC0180E990E01B969C9381
:101350008E931A978CE051968C93519716969C9188
:101360001697892F8E7F16968C93169792FD10C034
:10137000209156043091570419963C932E93189758
:10138000B0935704A0935604846016968C931697D6
:101390008FEF1D968C931D971C961C921C97179689
:1013A0008C93179795967C936E939497D7961C92EF
:1013B0001E92D69705E010E020E030E096960D935F
:1013C0001D932D933C9399970FEF1FEF98019A96D9
:1013D0000D931D932D933C939D979E960D931D9376
:1013E0002D933C93D197D2960D931D932D933C93BF
:1013F000D5977727FB01EE5CFE4F8491FB01E25EFF
:10140000FE4F24912223C9F030E0220F331FF9014F
:10141000EA57FF4F45915491F901EC5EFE4FC5919B
:10142000D4912FB7F894FA013081982F9095932397
:101430009083E8818E2B88832FBFCD01DF91CF91E0
:101440001F910F910895EF92FF920F931F93CF93E7
:10145000DF93EC01909113029F5F292F2770209357
:10146000130290FF02C090E801C090E021FD90645B
:10147000247009F0906220E1290FFE013C967E0164
:101480008FE0E80EF11C00E011E06191662331F07D
:1014900070E0C8010E94AF136F5F01C060E0DF0120
:1014A00014976C93322F369F030E30E0311D1124B8
:1014B000CF010797311103C0EC01188203C03150EE
:1014C000EC013883662311F061506C93EE15FF0533
:1014D000E1F6DF91CF911F910F91FF90EF9008956A
:1014E000DC018D919C91009739F0DC01ED91FC912C
:1014F0000280F381E02D099408950F931F93CF93F9
:10150000DF93EB018C01015F1F4FDC011F968D9172
:101510009C915097009739F0DC01ED91FC9101907E
:10152000F081E02D099580E00E94FD0680E00E9498
:10153000FD0680E00E94FD0680E00E94FD068C8191
:101540009D81181619060CF054C08FEF0E94FD06FD
:10155000E881F9812281222321F03885230F08F4C4
:101560002FEF3E85239F020E20E0211D1124822FA4
:101570000E94FD06E881F9812181222321F03F812B
:10158000230F08F42FEF3D85239F020E20E0211D3D
:101590001124822F0E94FD06E881F98120812223F7
:1015A00021F03E81230F08F42FEF3C85239F020E8C
:1015B00020E0211D1124822F0E94FD0689859E8135
:1015C000891B8E838A859F81891B8F838B85988554
:1015D000891B88872F8588819981820F911D27FD1E
:1015E0009A95998388838C819D8101979D838C83B3
:1015F000A6CF2A813B8137FF02C0215E3F4FE90120
:1016000085E0D595C7958A95E1F78FEF0E94FD0695
:1016100080E00E94FD0680E00E94FD0680E00E94BE
:10162000FD06219790F7C801DF91CF911F910F918F
:101630000C94700ACF92DF92EF92FF920F931F9358
:10164000CF93DF9300D000D0CDB7DEB76C016983B4
:101650008FEF8B8380EF8A838FE1E82E82E0F82E74
:1016600000E010E00C151D0584F4B701CE010196D1
:101670004C830E94DA0899814C81940F99830F5F03
:101680001F4F83E0E80EF11CEDCF0F900F900F90ED
:101690000F90DF91CF911F910F91FF90EF90DF900E
:1016A000CF9008950F931F93CF93DF938C01C62F94
:1016B000D42F8F3F910509F010F4102F00270E94BE
:1016C0001D089B01AC01A8E1B1E00E9413159B012C
:1016D000AC01D8010E941315292F96FD2095E22F09
:1016E000EF732F7096FD2F5FE695E695E695E67011
:1016F000F0E0E85DFE4F3181329F202D312D112425
:1017000022952F703295307F232B3081230F97FD48
:1017100021953D2F3C1B2058239F020E20E0211DC8
:101720001124822F8C0FDF91CF911F910F9108957B
:1017300020E0DC0160FF03C001C02D932D936250B7
:10174000E0F77040D0F70895CF93DF93382FEFE1A3
:10175000F2E0A1E2B2E02081239F020E20E0211DF1
:101760002083ED012A91239F020E20E0211D288372
:101770002C91239F020E20E0211D2C9311243396DF
:10178000139682E0EF3AF80731F7DF91CF91089591
:1017900020E330E042E653E0FC01DA0120FF05C01F
:1017A00002C001900D9201900D922250D0F730406E
:1017B000C0F7CA0108953F924F925F926F927F9255
:1017C0008F929F92AF92BF92CF92DF92EF92FF9251
:1017D0000F931F93CF93DF9300D01F92CDB7DEB747
:1017E000F82E80914F0390915003A0915103B09136
:1017F0005203892B8A2B8B2BE9F00E94F80700916A
:101800004D0410914E0420914F0430915004DC019E
:10181000CB01801B910BA20BB30B00914F031091D6
:101820005003209151033091520380179107A20772
:10183000B307B8F20E94F80760934D0470934E040A
:1018400080934F0490935004E0915703F091580314
:10185000309759F0409153035091540360915503D0
:10186000709156038F2D0995F82E00911D0210914D
:101870001E024F2C512C612C712C0115110509F4FD
:1018800061C0D8011C96EC901C9780914D039091FB
:101890004E038436910510F41C961C92D801ED91EC
:1018A000FC91A280B38019821A821B82F11014C0AD
:1018B000F80145855685628173819E012F5F3F4FF8
:1018C000C801F5010995D8011C96EC921C97149655
:1018D0000D911C911597D1CFF8013996CE01019643
:1018E0006C0148019CE0890E911CDF0113973C902C
:1018F0002191332001F12223F1F0822F90E0A0E02A
:10190000B0E09C01AD012F5F3F4F4F4F5F4FC301D0
:10191000B2010E9493139B01AC01832D90E0A0E0E3
:10192000B0E0BC01CD016F5F7F4F8F4F9F4F0E9492
:101930009313D6018C93BFEFCB1ADB0AE815F90598
:10194000A1F6B6CF80914B0490914C048C010F5FAF
:101950001F4F10934C0400934B0449979CF10E9435
:101960001D084B015C0188EE93E0089FB001099FC0
:10197000700D189F700D1124072E000C880B990B09
:10198000C0904704D0904804E0904904F0904A0485
:10199000A50194012C193D094E095F090E941E15ED
:1019A00030934E0320934D0310924C0410924B043D
:1019B0000E941D0860934704709348048093490473
:1019C00090934A040F900F900F90DF91CF911F9149
:1019D0000F91FF90EF90DF90CF90BF90AF909F90CE
:1019E0008F907F906F905F904F903F9008952F92CF
:1019F0003F924F925F926F927F928F929F92AF929F
:101A0000BF92CF92DF92EF92FF920F931F93CF93EB
:101A1000DF93EC010E941D088E81982F937009F0CE
:101A200017C14E895F89688D798D4F5F5F4F6F4F0A
:101A30007F4F4E8B5F8B688F798F82608E838C8512
:101A40008F3F09F4B0C0E881F9810680F781E02D6D
:101A50006DEF7FEFCE0109956A887B886114710470
:101A600009F456C02E883F88488C598C0E941D0866
:101A70000A811B812C813D815B016C01A01AB10A96
:101A8000C20AD30A8F8498886E856F3F31F0062E84
:101A9000000C770B6F5F7F4F02C06FEF7FEFA401E9
:101AA000CE010E9480097C018C858F3F49F06989B5
:101AB00070E0680F711D87FD7A956250710902C050
:101AC0006FEF7FEFA401CE010E9480098C018D850C
:101AD0008F3F49F0698970E0680F711D87FD7A9525
:101AE0006250710902C06FEF7FEFA401CE010E9426
:101AF00080095F924F923F922F929C01A401BE01F8
:101B00008C899D89F30109950F900F900F900F908C
:101B10006D8567FD14C029896203F0011124329696
:101B20006A857B85E60FF71F6491E881F981062EAF
:101B3000000C770B0680F781E02DCE0109958C858E
:101B40008D878FEF8C870E941D086A837B838C832F
:101B50009D836D8529896203F00111246A857B8547
:101B6000E60FF71F6491E881F981062E000C770BD0
:101B70000680F781E02DCE0109953D852989320344
:101B8000F001112431968A859B85E80FF91FE491B5
:101B90008E81EE3F11F4816001C08E7F8E831E8A9C
:101BA0001F8A188E198E6D8529896203F001112410
:101BB00031966A857B85E60FF71F64916F3F51F080
:101BC000E881F981062E000C770B0680F781E02D65
:101BD000CE01099503E0602F002E000C770B2989B8
:101BE000822F90E06817790784F53D853203F00174
:101BF0001124E60FF71F2A853B85E20FF31F14918E
:101C00001F3FC9F0019768177907B9F07B01F3E02E
:101C1000EF1AF108E881F9810480F581E02DB70120
:101C2000CE010995892B49F48F81082E000C990B60
:101C30008E159F0511F00F5FCECF1C878E818E7F92
:101C40008E8303500E878FEF8F838E818D7F8E83DF
:101C50000E941D08CE01DF91CF911F910F91FF903F
:101C6000EF90DF90CF90BF90AF909F908F907F903C
:101C70006F905F904F903F902F9008952F923F92DA
:101C80004F925F926F927F928F929F92AF92BF928C
:101C9000CF92DF92EF92FF920F931F93CF93DF9338
:101CA000CDB7DEB729970FB6F894DEBF0FBECDBF14
:101CB0005C017B01DA014901F80126173707C0F4FE
:101CC0002081918182813C91308311963C911197C2
:101CD000318312963C91129732832C9311969C93E8
:101CE000119712968C9312978F2D7401862E982E31
:101CF0000281002319F08181811102C08C918083BF
:101D000012969C9112978081992329F011962C911B
:101D10001197211101C08C9311966C901197712C21
:101D2000C180D12CC618D708D694DC2CCC24D794EB
:101D3000C794E92FF0E010E00E1B1F0B1695102F33
:101D40000027179507955C90851987FF62C08195DC
:101D500020E8829FC00111249195819591099401F9
:101D60002E193F0919F0422E432F03C044244394F7
:101D700040E0642D742F0E94AF139B01C601642DB7
:101D8000742F0E94AF136B01C801642D742F0E9441
:101D9000AF13C901880F991F9D838C83A601440F3F
:101DA000551F9B01220F331F052D10E0102F002718
:101DB000762C6624DE2ECC241701220C331C2E0C2C
:101DC0003F1C412C512C8E149F0440F119837A82C0
:101DD000DB82B201620D731D6A0D7B1DCE0101967F
:101DE000288739874E835F830E94DA088C819D8122
:101DF000080F191F4E815F81640E751E2885398575
:101E0000C20ED31E9FEFE91AF90A83E0480E511C57
:101E1000DACF20E8829FC0011124A1CF29960FB606
:101E2000F894DEBF0FBECDBFDF91CF911F910F9110
:101E3000FF90EF90DF90CF90BF90AF909F908F90EA
:101E40007F906F905F904F903F902F9008950097F4
:101E500069F0FC0101900020E9F73197AF01481BC0
:101E6000590BBC018FEA92E00C94091080E090E0DD
:101E70000895CF93DF93DC018C918770813019F046
:101E8000833069F01DC01196ED91FC911297309747
:101E9000B9F013968D919C911497099511C01196E4
:101EA0008D919C911297009759F0EC01E881F9818E
:101EB00013966D917C9114970280F381E02D099522
:101EC00081E0DF91CF9108951F920F920FB60F928C
:101ED00011242F933F934F935F936F937F938F932F
:101EE0009F93AF93BF93CF93DF93EF93FF93809133
:101EF000430490914404A0914504B0914604892B79
:101F00008A2B8B2B59F180914204E0914004F0918F
:101F100041049081892780838091430490914404F7
:101F2000A0914504B0914604181619061A061B061E
:101F30000CF05CC08091430490914404A09145044E
:101F4000B09146040197A109B1098093430490938D
:101F50004404A0934504B093460448C02091020174
:101F6000EAE5F1E0E4918FEF80930201E130B9F00E
:101F700098F0E230C9F4809170008D7F80937000FA
:101F800081E08093B0008091B100887F846080936D
:101F9000B1001092B30008C010926E0005C080918D
:101FA0006F008D7F80936F0030E0F901EA5BFE4F98
:101FB0008491F901EE5CFE4FD491F901E25EFE4F8F
:101FC000C491CC2399F081110E94CF07EC2FF0E04F
:101FD000EE0FFF1FEC5EFE4FA591B4918FB7F89402
:101FE0009C91ED2FE095E923EC938FBFFF91EF914A
:101FF000DF91CF91BF91AF919F918F917F916F9121
:102000005F914F913F912F910F900FBE0F901F90B6
:102010001895CF92DF92EF92FF920F931F93CF9379
:10202000DF936C017A018B01C0E0D0E0CE15DF05B3
:1020300089F0D8016D918D01D601ED91FC9101904F
:10204000F081E02DC6010995892B11F47E0102C0B3
:102050002196ECCFC701DF91CF911F910F91FF9097
:10206000EF90DF90CF900895FC01918D828D9817AD
:1020700061F0828DDF01A80FB11D5D968C91928D6C
:102080009F5F9F73928F90E008958FEF9FEF089569
:10209000FC01918D828D981731F0828DE80FF11D32
:1020A000858D90E008958FEF9FEF0895FC01918D4D
:1020B000228D892F90E0805C9F4F821B91098F7346
:1020C000992708958FEA92E00E94561021E0892B0B
:1020D00009F420E0822F0895FC01848DDF01A80F10
:1020E000B11DA35ABF4F2C91848D90E001968F7340
:1020F0009927848FA689B7892C93A089B1898C915F
:1021000080648C93938D848D981306C00288F38924
:10211000E02D80818F7D80830895EF92FF920F9351
:102120001F93CF93DF93EC0181E0888F9B8D8C8D83
:10213000981305C0E889F989808185FD24C0F62EB1
:102140000B8D10E00F5F1F4F0F731127E02E8C8D4A
:10215000E8120CC00FB607FCFACFE889F989808134
:1021600085FFF5CFCE010E946C10F1CF8B8DFE0163
:10217000E80FF11DE35AFF4FF0820B8FEA89FB89CC
:102180008081806207C0EE89FF896083E889F989D0
:1021900080818064808381E090E0DF91CF911F9106
:1021A0000F91FF90EF900895CF93DF93EC01888D0E
:1021B0008823C9F0EA89FB89808185FD05C0A8894B
:1021C000B9898C9186FD0FC00FB607FCF5CF8081D1
:1021D00085FFF2CFA889B9898C9185FFEDCFCE011B
:1021E0000E946C10E7CFDF91CF91089580E090E0DE
:1021F000892B29F00E94621081110C94000008952F
:102200000E940E151F920F920FB60F9211242F935A
:102210003F934F935F936F937F938F939F93AF936E
:10222000BF93EF93FF938FEA92E00E946C10FF91AF
:10223000EF91BF91AF919F918F917F916F915F913E
:102240004F913F912F910F900FBE0F901F901895B7
:102250001F920F920FB60F9211242F938F939F937B
:10226000EF93FF93E091BF02F091C0028081E09173
:10227000C502F091C60282FD12C090818091C80211
:102280008F5F8F732091C902821751F0E091C802CD
:10229000F0E0E155FD4F958F8093C80201C0808129
:1022A000FF91EF919F918F912F910F900FBE0F9003
:1022B0001F901895CF93DF93282F30E0F901EA5B48
:1022C000FE4F8491F901EE5CFE4FD491F901E25E7C
:1022D000FE4FC491CC2391F081110E94CF07EC2FC7
:1022E000F0E0EE0FFF1FE556FE4FA591B491EC9183
:1022F000ED2381E090E021F480E002C080E090E0F6
:10230000DF91CF910895CF93EFEAF2E0138212822A
:1023100088EE93E0A0E0B0E084839583A683B78342
:1023200084E391E09183808385EC90E095878487B6
:1023300084EC90E09787868780EC90E0918B808B8F
:1023400081EC90E0938B828B82EC90E0958B848B78
:1023500086EC90E0978B868B118E128E138E148EE6
:10236000ECE4F3E0CFEFC08312821182148613866F
:102370008FEF9FEFDC0187839087A187B2875AE1B7
:10238000E4E0F4E0DF01852F1D928A95E9F741E052
:102390004683C783C587C68724E431E03183208321
:1023A00081E090E093AF82AFE8ECF3E0DF011D92B3
:1023B0005A95E9F74683C783C587C687318320834B
:1023C00093AF82AFE2ECF3E010821182C28385EF1B
:1023D0008383848385836BE571E082E993E00E94C7
:1023E000DE066BE571E082E693E00E94DE06E9E539
:1023F000F3E08CE88083C183C28394E69383C48333
:10240000C58386831782C087E1E5F4E0C083C1837A
:10241000CF910895CF93DF93CDB7DEB7A1970FB6D5
:10242000F894DEBF0FBECDBF789484B5826084BDC2
:1024300084B5816084BD85B5826085BD85B58160C8
:1024400085BD80916E00816080936E001092810046
:102450008091810082608093810080918100816001
:1024600080938100809180008160809380008091C2
:10247000B10084608093B1008091B000816080934E
:10248000B00080917A00846080937A0080917A0015
:10249000826080937A0080917A00816080937A00D4
:1024A00080917A00806880937A001092C1008091B8
:1024B0006B04811145C010925D0410925C048FEF93
:1024C000809360048093610480936204809363042A
:1024D000809364048093650481E080936604109285
:1024E00068041092670410925F0410925E04809159
:1024F0001D0290911E02892B31F48AE594E090939D
:102500001E0280931D02E0915804F0915904309707
:1025100021F08AE594E0958384838AE594E09093A2
:1025200059048093580482E691E090935B04809371
:102530005A0410926A041092690481E080936B043B
:10254000E0915A04F0915B040480F581E02D8AE566
:1025500094E009958FE192E090935D0480935C0490
:1025600080E390E09093680480936704E091030116
:10257000F0910401EE0FFF1FE857FE4F808180931A
:102580004C03E091BF02F091C00282E08083E091B1
:10259000BB02F091BC021082E091BD02F091BE023C
:1025A00080E180831092C702E091C302F091C402DF
:1025B00086E08083E091C102F091C2028081806157
:1025C0008083E091C102F091C202808188608083A3
:1025D000E091C102F091C202808180688083E09125
:1025E000C102F091C20280818F7D808389E991E0F0
:1025F0000E94270F19A28E010F5D1F4F6CE0C62E9F
:10260000D12CE12CF12C7AE0872E912CA12CB12C2D
:10261000C701B601A50194010E941E15605DF80175
:1026200062938F01FAE0CF16D104E104F10428F09F
:10263000C12CD12C7601C394EBCFC8010E94270F87
:1026400084EB91E00E94270F62E070E084E094E068
:102650000E949F09FC01BB24B394B28E8EEF90E0E0
:10266000948F838F168E158E01E010E013AF02AFAA
:1026700028EEC22E23E0D22EE12CF12CC2AAD3AA3E
:10268000E4AAF5AA63E070E088EC93E00E949F0959
:10269000FC01B28E88E091E0948F838F168E158EA8
:1026A00013AF02AFC2AAD3AAE4AAF5AA34E0E32E7C
:1026B000F12C0CE010E0C0905604D0905704C114E7
:1026C000D10459F0F6018681837019F4C6010E9485
:1026D000F70CF601C084D184F2CF80910301909170
:1026E0000401B7010E94AF13FC01EE0FFF1FE85772
:1026F000FE4F808180934C03809154049091550447
:10270000B8010E94AF13FC01EE0FFF1FE059FE4F0E
:102710000190F081E02D099580914C030E94DB0B24
:102720000E94F610C8CFDB018F939F930E94131570
:10273000BF91AF91A29F800D911DA39F900DB29F5D
:10274000900D11240895991B79E004C0991F9617E4
:1027500008F0961B881F7A95C9F78095089597FB16
:10276000072E16F4009407D077FD09D00E94C913F4
:1027700007FC05D03EF4909581959F4F0895709584
:1027800061957F4F0895EE0FFF1F0590F491E02DA6
:102790000994AA1BBB1B51E107C0AA1FBB1FA617A8
:1027A000B70710F0A61BB70B881F991F5A95A9F7FA
:1027B00080959095BC01CD0108955058BB27AA275C
:1027C0000E94F5130C94D4140E94C61438F00E9491
:1027D000CD1420F039F49F3F19F426F40C94C3145F
:1027E0000EF4E095E7FB0C94BD14E92F0E94E5146C
:1027F00058F3BA17620773078407950720F079F436
:10280000A6F50C9407150EF4E0950B2EBA2FA02D0B
:102810000B01B90190010C01CA01A0011124FF278D
:10282000591B99F0593F50F4503E68F11A16F04088
:10283000A22F232F342F4427585FF3CF4695379587
:102840002795A795F0405395C9F77EF41F16BA0B4C
:10285000620B730B840BBAF09150A1F0FF0FBB1FFA
:10286000661F771F881FC2F70EC0BA0F621F731F43
:10287000841F48F4879577956795B795F7959E3FA0
:1028800008F0B0CF9395880F08F09927EE0F979531
:10289000879508950E9451146894B1110C940815FD
:1028A00008950E94ED1488F09F5798F0B92F99274A
:1028B000B751B0F0E1F0660F771F881F991F1AF02B
:1028C000BA95C9F714C0B13091F00E940715B1E074
:1028D00008950C940715672F782F8827B85F39F073
:1028E000B93FCCF3869577956795B395D9F73EF4C4
:1028F00090958095709561957F4F8F4F9F4F08956C
:10290000E89409C097FB3EF4909580957095619589
:102910007F4F8F4F9F4F9923A9F0F92F96E9BB273F
:102920009395F695879577956795B795F111F8CFBB
:10293000FAF4BB0F11F460FF1BC06F5F7F4F8F4F26
:102940009F4F16C0882311F096E911C0772321F01C
:102950009EE8872F762F05C0662371F096E8862FB4
:1029600070E060E02AF09A95660F771F881FDAF70B
:10297000880F9695879597F9089597F99F6780E84E
:1029800070E060E008959FEF80EC089500240A94C1
:102990001616170618060906089500240A9412163A
:1029A0001306140605060895092E0394000C11F46D
:1029B000882352F0BB0F40F4BF2B11F460FF04C01A
:1029C0006F5F7F4F8F4F9F4F089557FD9058440F73
:1029D000551F59F05F3F71F04795880F97FB991F7E
:1029E00061F09F3F79F0879508951216130614063B
:1029F000551FF2CF4695F1DF08C0161617061806C8
:102A0000991FF1CF86957105610508940895E894A2
:102A1000BB2766277727CB0197F9089581E090E0DF
:102A2000F8940C944F150E944015A59F900DB49FEB
:102A3000900DA49F800D911D11240895A1E21A2EDE
:102A4000AA1BBB1BFD010DC0AA1FBB1FEE1FFF1F52
:102A5000A217B307E407F50720F0A21BB30BE40BA2
:102A6000F50B661F771F881F991F1A9469F76095E9
:102A70007095809590959B01AC01BD01CF010895A3
:102A8000A29FB001B39FC001A39F700D811D1124AF
:102A9000911DB29F700D811D1124911D0895F89410
:022AA000FFCF66
:102AA2003905FF01000100000000003100F9183073
:102AB20000FB302C001C472600825A1F006D6A174B
:102AC2000041760E00897D04003131295A1B750AB6
:102AD200000000008D100910561034104810D41058
:102AE20000000000F70636075A087907FFFF0000CA
:102AF2000000001100110011250121011E0100003A
:102B02000000B501F801B001250121011E017D0A75
:102B12006B026E031803BC03E8040F043C06510663
:102B22007B069206A9045004140032006400C80017
:102B320004002A4E4F4E452A00546F74616C206E79
:102B4200756D626572206F66207061747465726E55
:082B5200733A20000D0A000097
:00000001FF
